{
  "_format": "hh-sol-artifact-1",
  "contractName": "AirdropNft",
  "sourceName": "contracts/AirDropNft.sol",
  "abi": [
    {
      "inputs": [],
      "stateMutability": "nonpayable",
      "type": "constructor"
    },
    {
      "inputs": [
        {
          "components": [
            {
              "internalType": "address",
              "name": "nft",
              "type": "address"
            },
            {
              "internalType": "uint256",
              "name": "id",
              "type": "uint256"
            }
          ],
          "internalType": "struct AirdropNft.Airdrop[]",
          "name": "_airdrops",
          "type": "tuple[]"
        }
      ],
      "name": "addAirdrops",
      "outputs": [],
      "stateMutability": "nonpayable",
      "type": "function"
    },
    {
      "inputs": [
        {
          "internalType": "address[]",
          "name": "_recipients",
          "type": "address[]"
        }
      ],
      "name": "addReceipients",
      "outputs": [],
      "stateMutability": "nonpayable",
      "type": "function"
    },
    {
      "inputs": [],
      "name": "admin",
      "outputs": [
        {
          "internalType": "address",
          "name": "",
          "type": "address"
        }
      ],
      "stateMutability": "view",
      "type": "function"
    },
    {
      "inputs": [
        {
          "internalType": "uint256",
          "name": "",
          "type": "uint256"
        }
      ],
      "name": "airdrops",
      "outputs": [
        {
          "internalType": "address",
          "name": "nft",
          "type": "address"
        },
        {
          "internalType": "uint256",
          "name": "id",
          "type": "uint256"
        }
      ],
      "stateMutability": "view",
      "type": "function"
    },
    {
      "inputs": [],
      "name": "claim",
      "outputs": [],
      "stateMutability": "nonpayable",
      "type": "function"
    },
    {
      "inputs": [],
      "name": "nextAirDropId",
      "outputs": [
        {
          "internalType": "uint256",
          "name": "",
          "type": "uint256"
        }
      ],
      "stateMutability": "view",
      "type": "function"
    },
    {
      "inputs": [
        {
          "internalType": "address",
          "name": "",
          "type": "address"
        }
      ],
      "name": "recipients",
      "outputs": [
        {
          "internalType": "bool",
          "name": "",
          "type": "bool"
        }
      ],
      "stateMutability": "view",
      "type": "function"
    },
    {
      "inputs": [
        {
          "internalType": "address[]",
          "name": "_recipients",
          "type": "address[]"
        }
      ],
      "name": "removeRecipients",
      "outputs": [],
      "stateMutability": "nonpayable",
      "type": "function"
    }
  ],
  "bytecode": "0x608060405234801561001057600080fd5b5033600160006101000a81548173ffffffffffffffffffffffffffffffffffffffff021916908373ffffffffffffffffffffffffffffffffffffffff160217905550610f2c806100616000396000f3fe608060405234801561001057600080fd5b50600436106100885760003560e01c8063d234c3f91161005b578063d234c3f914610100578063eb8203121461011e578063f851a4401461014e578063f8c8285b1461016c57610088565b806347ea7c041461008d5780634e71d92d146100a957806360db5082146100b3578063639ab82f146100e4575b600080fd5b6100a760048036038101906100a291906109d6565b610188565b005b6100b16102ad565b005b6100cd60048036038101906100c89190610a55565b610461565b6040516100db929190610aa0565b60405180910390f35b6100fe60048036038101906100f991906109d6565b6104a5565b005b6101086105ca565b6040516101159190610ac9565b60405180910390f35b61013860048036038101906101339190610ae4565b6105d0565b6040516101459190610b2c565b60405180910390f35b6101566105f0565b6040516101639190610b47565b60405180910390f35b61018660048036038101906101819190610c7a565b610616565b005b600160009054906101000a900473ffffffffffffffffffffffffffffffffffffffff1673ffffffffffffffffffffffffffffffffffffffff163373ffffffffffffffffffffffffffffffffffffffff1614610218576040517f08c379a000000000000000000000000000000000000000000000000000000000815260040161020f90610d20565b60405180910390fd5b60005b81518110156102a95760016003600084848151811061023d5761023c610d40565b5b602002602001015173ffffffffffffffffffffffffffffffffffffffff1673ffffffffffffffffffffffffffffffffffffffff16815260200190815260200160002060006101000a81548160ff02191690831515021790555080806102a190610d9e565b91505061021b565b5050565b60011515600360003373ffffffffffffffffffffffffffffffffffffffff1673ffffffffffffffffffffffffffffffffffffffff16815260200190815260200160002060009054906101000a900460ff16151514610340576040517f08c379a000000000000000000000000000000000000000000000000000000000815260040161033790610e33565b60405180910390fd5b6000600360003373ffffffffffffffffffffffffffffffffffffffff1673ffffffffffffffffffffffffffffffffffffffff16815260200190815260200160002060006101000a81548160ff0219169083151502179055506000600260008054815260200190815260200160002090508060000160009054906101000a900473ffffffffffffffffffffffffffffffffffffffff1673ffffffffffffffffffffffffffffffffffffffff166323b872dd303384600101546040518463ffffffff1660e01b815260040161041593929190610e53565b600060405180830381600087803b15801561042f57600080fd5b505af1158015610443573d6000803e3d6000fd5b5050505060008081548092919061045990610d9e565b919050555050565b60026020528060005260406000206000915090508060000160009054906101000a900473ffffffffffffffffffffffffffffffffffffffff16908060010154905082565b600160009054906101000a900473ffffffffffffffffffffffffffffffffffffffff1673ffffffffffffffffffffffffffffffffffffffff163373ffffffffffffffffffffffffffffffffffffffff1614610535576040517f08c379a000000000000000000000000000000000000000000000000000000000815260040161052c90610ed6565b60405180910390fd5b60005b81518110156105c65760006003600084848151811061055a57610559610d40565b5b602002602001015173ffffffffffffffffffffffffffffffffffffffff1673ffffffffffffffffffffffffffffffffffffffff16815260200190815260200160002060006101000a81548160ff02191690831515021790555080806105be90610d9e565b915050610538565b5050565b60005481565b60036020528060005260406000206000915054906101000a900460ff1681565b600160009054906101000a900473ffffffffffffffffffffffffffffffffffffffff1681565b600160009054906101000a900473ffffffffffffffffffffffffffffffffffffffff1673ffffffffffffffffffffffffffffffffffffffff163373ffffffffffffffffffffffffffffffffffffffff16146106a6576040517f08c379a000000000000000000000000000000000000000000000000000000000815260040161069d90610d20565b60405180910390fd5b60008054905060005b8251811015610806578281815181106106cb576106ca610d40565b5b60200260200101516002600084815260200190815260200160002060008201518160000160006101000a81548173ffffffffffffffffffffffffffffffffffffffff021916908373ffffffffffffffffffffffffffffffffffffffff1602179055506020820151816001015590505082818151811061074d5761074c610d40565b5b60200260200101516000015173ffffffffffffffffffffffffffffffffffffffff166323b872dd333086858151811061078957610788610d40565b5b6020026020010151602001516040518463ffffffff1660e01b81526004016107b393929190610e53565b600060405180830381600087803b1580156107cd57600080fd5b505af11580156107e1573d6000803e3d6000fd5b5050505081806107f090610d9e565b92505080806107fe90610d9e565b9150506106af565b505050565b6000604051905090565b600080fd5b600080fd5b600080fd5b6000601f19601f8301169050919050565b7f4e487b7100000000000000000000000000000000000000000000000000000000600052604160045260246000fd5b61086d82610824565b810181811067ffffffffffffffff8211171561088c5761088b610835565b5b80604052505050565b600061089f61080b565b90506108ab8282610864565b919050565b600067ffffffffffffffff8211156108cb576108ca610835565b5b602082029050602081019050919050565b600080fd5b600073ffffffffffffffffffffffffffffffffffffffff82169050919050565b600061090c826108e1565b9050919050565b61091c81610901565b811461092757600080fd5b50565b60008135905061093981610913565b92915050565b600061095261094d846108b0565b610895565b90508083825260208201905060208402830185811115610975576109746108dc565b5b835b8181101561099e578061098a888261092a565b845260208401935050602081019050610977565b5050509392505050565b600082601f8301126109bd576109bc61081f565b5b81356109cd84826020860161093f565b91505092915050565b6000602082840312156109ec576109eb610815565b5b600082013567ffffffffffffffff811115610a0a57610a0961081a565b5b610a16848285016109a8565b91505092915050565b6000819050919050565b610a3281610a1f565b8114610a3d57600080fd5b50565b600081359050610a4f81610a29565b92915050565b600060208284031215610a6b57610a6a610815565b5b6000610a7984828501610a40565b91505092915050565b610a8b81610901565b82525050565b610a9a81610a1f565b82525050565b6000604082019050610ab56000830185610a82565b610ac26020830184610a91565b9392505050565b6000602082019050610ade6000830184610a91565b92915050565b600060208284031215610afa57610af9610815565b5b6000610b088482850161092a565b91505092915050565b60008115159050919050565b610b2681610b11565b82525050565b6000602082019050610b416000830184610b1d565b92915050565b6000602082019050610b5c6000830184610a82565b92915050565b600067ffffffffffffffff821115610b7d57610b7c610835565b5b602082029050602081019050919050565b600080fd5b600060408284031215610ba957610ba8610b8e565b5b610bb36040610895565b90506000610bc38482850161092a565b6000830152506020610bd784828501610a40565b60208301525092915050565b6000610bf6610bf184610b62565b610895565b90508083825260208201905060408402830185811115610c1957610c186108dc565b5b835b81811015610c425780610c2e8882610b93565b845260208401935050604081019050610c1b565b5050509392505050565b600082601f830112610c6157610c6061081f565b5b8135610c71848260208601610be3565b91505092915050565b600060208284031215610c9057610c8f610815565b5b600082013567ffffffffffffffff811115610cae57610cad61081a565b5b610cba84828501610c4c565b91505092915050565b600082825260208201905092915050565b7f6f6e6c792061646d696e00000000000000000000000000000000000000000000600082015250565b6000610d0a600a83610cc3565b9150610d1582610cd4565b602082019050919050565b60006020820190508181036000830152610d3981610cfd565b9050919050565b7f4e487b7100000000000000000000000000000000000000000000000000000000600052603260045260246000fd5b7f4e487b7100000000000000000000000000000000000000000000000000000000600052601160045260246000fd5b6000610da982610a1f565b91507fffffffffffffffffffffffffffffffffffffffffffffffffffffffffffffffff821415610ddc57610ddb610d6f565b5b600182019050919050565b7f726563697069656e74206e6f7420726567697374657265640000000000000000600082015250565b6000610e1d601883610cc3565b9150610e2882610de7565b602082019050919050565b60006020820190508181036000830152610e4c81610e10565b9050919050565b6000606082019050610e686000830186610a82565b610e756020830185610a82565b610e826040830184610a91565b949350505050565b7f4f6e6c792061646d696e00000000000000000000000000000000000000000000600082015250565b6000610ec0600a83610cc3565b9150610ecb82610e8a565b602082019050919050565b60006020820190508181036000830152610eef81610eb3565b905091905056fea26469706673582212206c639806c77b90e0c2dad3704cc6da8a4b0ed67af3c001e682e5156158ef893464736f6c63430008090033",
  "linkReferences": {},
  "deployedLinkReferences": {}
}